{
  "contractName": "Flightbooking",
  "abi": [
    {
      "inputs": [],
      "payable": false,
      "stateMutability": "nonpayable",
      "type": "constructor"
    },
    {
      "anonymous": false,
      "inputs": [
        {
          "indexed": false,
          "internalType": "bool",
          "name": "isValidBooking",
          "type": "bool"
        },
        {
          "indexed": false,
          "internalType": "string",
          "name": "departureCity",
          "type": "string"
        },
        {
          "indexed": false,
          "internalType": "string",
          "name": "arrivalCity",
          "type": "string"
        },
        {
          "indexed": false,
          "internalType": "bool",
          "name": "hasCheckedIn",
          "type": "bool"
        },
        {
          "indexed": false,
          "internalType": "address payable",
          "name": "passenger",
          "type": "address"
        }
      ],
      "name": "booking",
      "type": "event"
    },
    {
      "anonymous": false,
      "inputs": [
        {
          "indexed": false,
          "internalType": "bool",
          "name": "isValidBooking",
          "type": "bool"
        },
        {
          "indexed": false,
          "internalType": "string",
          "name": "departureCity",
          "type": "string"
        },
        {
          "indexed": false,
          "internalType": "string",
          "name": "arrivalCity",
          "type": "string"
        },
        {
          "indexed": false,
          "internalType": "bool",
          "name": "hasCheckedIn",
          "type": "bool"
        },
        {
          "indexed": false,
          "internalType": "address payable",
          "name": "passenger",
          "type": "address"
        }
      ],
      "name": "cancelBooking",
      "type": "event"
    },
    {
      "anonymous": false,
      "inputs": [
        {
          "indexed": false,
          "internalType": "bool",
          "name": "isValidBooking",
          "type": "bool"
        },
        {
          "indexed": false,
          "internalType": "string",
          "name": "departureCity",
          "type": "string"
        },
        {
          "indexed": false,
          "internalType": "string",
          "name": "arrivalCity",
          "type": "string"
        },
        {
          "indexed": false,
          "internalType": "bool",
          "name": "hasCheckedIn",
          "type": "bool"
        },
        {
          "indexed": false,
          "internalType": "address payable",
          "name": "passenger",
          "type": "address"
        }
      ],
      "name": "chenckIn",
      "type": "event"
    },
    {
      "anonymous": false,
      "inputs": [
        {
          "indexed": false,
          "internalType": "uint256",
          "name": "transferEtherNum",
          "type": "uint256"
        },
        {
          "indexed": false,
          "internalType": "uint256",
          "name": "totalBalanceLeft",
          "type": "uint256"
        }
      ],
      "name": "refund",
      "type": "event"
    },
    {
      "constant": true,
      "inputs": [
        {
          "internalType": "address",
          "name": "",
          "type": "address"
        }
      ],
      "name": "bookings",
      "outputs": [
        {
          "internalType": "bool",
          "name": "isValidBooking",
          "type": "bool"
        },
        {
          "internalType": "string",
          "name": "departureCity",
          "type": "string"
        },
        {
          "internalType": "string",
          "name": "arrivalCity",
          "type": "string"
        },
        {
          "internalType": "bool",
          "name": "hasCheckedIn",
          "type": "bool"
        },
        {
          "internalType": "address payable",
          "name": "passenger",
          "type": "address"
        }
      ],
      "payable": false,
      "stateMutability": "view",
      "type": "function"
    },
    {
      "constant": true,
      "inputs": [],
      "name": "systemName",
      "outputs": [
        {
          "internalType": "string",
          "name": "",
          "type": "string"
        }
      ],
      "payable": false,
      "stateMutability": "view",
      "type": "function"
    },
    {
      "constant": false,
      "inputs": [
        {
          "internalType": "address payable",
          "name": "_address",
          "type": "address"
        },
        {
          "internalType": "uint256",
          "name": "value",
          "type": "uint256"
        }
      ],
      "name": "sendEther",
      "outputs": [],
      "payable": true,
      "stateMutability": "payable",
      "type": "function"
    },
    {
      "constant": false,
      "inputs": [
        {
          "internalType": "string",
          "name": "_departureCity",
          "type": "string"
        },
        {
          "internalType": "string",
          "name": "_arrivalCity",
          "type": "string"
        }
      ],
      "name": "createBooking",
      "outputs": [],
      "payable": false,
      "stateMutability": "nonpayable",
      "type": "function"
    },
    {
      "constant": false,
      "inputs": [],
      "name": "checkIn",
      "outputs": [],
      "payable": false,
      "stateMutability": "nonpayable",
      "type": "function"
    },
    {
      "constant": false,
      "inputs": [],
      "name": "cancel",
      "outputs": [],
      "payable": false,
      "stateMutability": "nonpayable",
      "type": "function"
    }
  ],
  "bytecode": "0x6080604052674563918244f400006002553480156200001d57600080fd5b50604051806060016040528060228152602001620018ca60229139600090805190602001906200004f92919062000066565b5068056bc75e2d6310000060038190555062000115565b828054600181600116156101000203166002900490600052602060002090601f016020900481019282601f10620000a957805160ff1916838001178555620000da565b82800160010185558215620000da579182015b82811115620000d9578251825591602001919060010190620000bc565b5b509050620000e99190620000ed565b5090565b6200011291905b808211156200010e576000816000905550600101620000f4565b5090565b90565b6117a580620001256000396000f3fe6080604052600436106100555760003560e01c806307dd2e4b1461005a578063183ff085146100ea578063a0a934ff14610101578063c1756a2c14610280578063dd4aeccc146102ce578063ea8a1af01461042d575b600080fd5b34801561006657600080fd5b5061006f610444565b6040518080602001828103825283818151815260200191508051906020019080838360005b838110156100af578082015181840152602081019050610094565b50505050905090810190601f1680156100dc5780820380516001836020036101000a031916815260200191505b509250505060405180910390f35b3480156100f657600080fd5b506100ff6104e2565b005b34801561010d57600080fd5b506101506004803603602081101561012457600080fd5b81019080803573ffffffffffffffffffffffffffffffffffffffff1690602001909291905050506109d3565b60405180861515151581526020018060200180602001851515151581526020018473ffffffffffffffffffffffffffffffffffffffff1673ffffffffffffffffffffffffffffffffffffffff168152602001838103835287818151815260200191508051906020019080838360005b838110156101da5780820151818401526020810190506101bf565b50505050905090810190601f1680156102075780820380516001836020036101000a031916815260200191505b50838103825286818151815260200191508051906020019080838360005b83811015610240578082015181840152602081019050610225565b50505050905090810190601f16801561026d5780820380516001836020036101000a031916815260200191505b5097505050505050505060405180910390f35b6102cc6004803603604081101561029657600080fd5b81019080803573ffffffffffffffffffffffffffffffffffffffff16906020019092919080359060200190929190505050610b73565b005b3480156102da57600080fd5b5061042b600480360360408110156102f157600080fd5b810190808035906020019064010000000081111561030e57600080fd5b82018360208201111561032057600080fd5b8035906020019184600183028401116401000000008311171561034257600080fd5b91908080601f016020809104026020016040519081016040528093929190818152602001838380828437600081840152601f19601f820116905080830192505050505050509192919290803590602001906401000000008111156103a557600080fd5b8201836020820111156103b757600080fd5b803590602001918460018302840111640100000000831117156103d957600080fd5b91908080601f016020809104026020016040519081016040528093929190818152602001838380828437600081840152601f19601f820116905080830192505050505050509192919290505050610bbe565b005b34801561043957600080fd5b506104426111f6565b005b60008054600181600116156101000203166002900480601f0160208091040260200160405190810160405280929190818152602001828054600181600116156101000203166002900480156104da5780601f106104af576101008083540402835291602001916104da565b820191906000526020600020905b8154815290600101906020018083116104bd57829003601f168201915b505050505081565b33600160006101000a81548173ffffffffffffffffffffffffffffffffffffffff021916908373ffffffffffffffffffffffffffffffffffffffff1602179055506001151560046000600160009054906101000a900473ffffffffffffffffffffffffffffffffffffffff1673ffffffffffffffffffffffffffffffffffffffff1673ffffffffffffffffffffffffffffffffffffffff16815260200190815260200160002060000160009054906101000a900460ff161515146105f1576040517f08c379a000000000000000000000000000000000000000000000000000000000815260040180806020018281038252602c815260200180611713602c913960400191505060405180910390fd5b6000151560046000600160009054906101000a900473ffffffffffffffffffffffffffffffffffffffff1673ffffffffffffffffffffffffffffffffffffffff1673ffffffffffffffffffffffffffffffffffffffff16815260200190815260200160002060030160009054906101000a900460ff161515146106dc576040517f08c379a00000000000000000000000000000000000000000000000000000000081526004018080602001828103825260168152602001807f43616e206e6f7420636865636b20696e2074776963650000000000000000000081525060200191505060405180910390fd5b600160046000600160009054906101000a900473ffffffffffffffffffffffffffffffffffffffff1673ffffffffffffffffffffffffffffffffffffffff1673ffffffffffffffffffffffffffffffffffffffff16815260200190815260200160002060030160006101000a81548160ff0219169083151502179055507f7a8fe71a7fb467f34613182ab276fb1ff969bb793450030dfba7679962852581600160046000600160009054906101000a900473ffffffffffffffffffffffffffffffffffffffff1673ffffffffffffffffffffffffffffffffffffffff1673ffffffffffffffffffffffffffffffffffffffff16815260200190815260200160002060010160046000600160009054906101000a900473ffffffffffffffffffffffffffffffffffffffff1673ffffffffffffffffffffffffffffffffffffffff1673ffffffffffffffffffffffffffffffffffffffff16815260200190815260200160002060020160018060009054906101000a900473ffffffffffffffffffffffffffffffffffffffff1660405180861515151581526020018060200180602001851515151581526020018473ffffffffffffffffffffffffffffffffffffffff1673ffffffffffffffffffffffffffffffffffffffff16815260200183810383528781815460018160011615610100020316600290048152602001915080546001816001161561010002031660029004801561093b5780601f106109105761010080835404028352916020019161093b565b820191906000526020600020905b81548152906001019060200180831161091e57829003601f168201915b50508381038252868181546001816001161561010002031660029004815260200191508054600181600116156101000203166002900480156109be5780601f10610993576101008083540402835291602001916109be565b820191906000526020600020905b8154815290600101906020018083116109a157829003601f168201915b505097505050505050505060405180910390a1565b60046020528060005260406000206000915090508060000160009054906101000a900460ff1690806001018054600181600116156101000203166002900480601f016020809104026020016040519081016040528092919081815260200182805460018160011615610100020316600290048015610a925780601f10610a6757610100808354040283529160200191610a92565b820191906000526020600020905b815481529060010190602001808311610a7557829003601f168201915b505050505090806002018054600181600116156101000203166002900480601f016020809104026020016040519081016040528092919081815260200182805460018160011615610100020316600290048015610b305780601f10610b0557610100808354040283529160200191610b30565b820191906000526020600020905b815481529060010190602001808311610b1357829003601f168201915b5050505050908060030160009054906101000a900460ff16908060030160019054906101000a900473ffffffffffffffffffffffffffffffffffffffff16905085565b8173ffffffffffffffffffffffffffffffffffffffff166108fc829081150290604051600060405180830381858888f19350505050158015610bb9573d6000803e3d6000fd5b505050565b33600160006101000a81548173ffffffffffffffffffffffffffffffffffffffff021916908373ffffffffffffffffffffffffffffffffffffffff1602179055506000825111610c59576040517f08c379a00000000000000000000000000000000000000000000000000000000081526004018080602001828103825260228152602001806116f16022913960400191505060405180910390fd5b6000815111610cd0576040517f08c379a00000000000000000000000000000000000000000000000000000000081526004018080602001828103825260208152602001807f4172726976616c20636974792773206e616d652069732072657175697265642181525060200191505060405180910390fd5b6000151560046000600160009054906101000a900473ffffffffffffffffffffffffffffffffffffffff1673ffffffffffffffffffffffffffffffffffffffff1673ffffffffffffffffffffffffffffffffffffffff16815260200190815260200160002060000160009054906101000a900460ff1615151480610dc957506001151560046000600160009054906101000a900473ffffffffffffffffffffffffffffffffffffffff1673ffffffffffffffffffffffffffffffffffffffff1673ffffffffffffffffffffffffffffffffffffffff16815260200190815260200160002060030160009054906101000a900460ff161515145b610e3b576040517f08c379a000000000000000000000000000000000000000000000000000000000815260040180806020018281038252601a8152602001807f5468652070617373656e6765722063616e206e6f7420626f6f6b00000000000081525060200191505060405180910390fd5b6002546003541015610eb5576040517f08c379a00000000000000000000000000000000000000000000000000000000081526004018080602001828103825260108152602001807f4e6f7420656e6f7567682045746865720000000000000000000000000000000081525060200191505060405180910390fd5b600560035403600381905550610eef600160009054906101000a900473ffffffffffffffffffffffffffffffffffffffff16600254610b73565b6040518060a00160405280600115158152602001838152602001828152602001600015158152602001600160009054906101000a900473ffffffffffffffffffffffffffffffffffffffff1673ffffffffffffffffffffffffffffffffffffffff1681525060046000600160009054906101000a900473ffffffffffffffffffffffffffffffffffffffff1673ffffffffffffffffffffffffffffffffffffffff1673ffffffffffffffffffffffffffffffffffffffff16815260200190815260200160002060008201518160000160006101000a81548160ff0219169083151502179055506020820151816001019080519060200190610ff192919061164b565b50604082015181600201908051906020019061100e92919061164b565b5060608201518160030160006101000a81548160ff02191690831515021790555060808201518160030160016101000a81548173ffffffffffffffffffffffffffffffffffffffff021916908373ffffffffffffffffffffffffffffffffffffffff1602179055509050507fb1146a594180161ae88ec9e84288fb44e7a116b6db98b6ad13ad45071654bf64600183836000600160009054906101000a900473ffffffffffffffffffffffffffffffffffffffff1660405180861515151581526020018060200180602001851515151581526020018473ffffffffffffffffffffffffffffffffffffffff1673ffffffffffffffffffffffffffffffffffffffff168152602001838103835287818151815260200191508051906020019080838360005b8381101561114d578082015181840152602081019050611132565b50505050905090810190601f16801561117a5780820380516001836020036101000a031916815260200191505b50838103825286818151815260200191508051906020019080838360005b838110156111b3578082015181840152602081019050611198565b50505050905090810190601f1680156111e05780820380516001836020036101000a031916815260200191505b5097505050505050505060405180910390a15050565b33600160006101000a81548173ffffffffffffffffffffffffffffffffffffffff021916908373ffffffffffffffffffffffffffffffffffffffff1602179055506000151560046000600160009054906101000a900473ffffffffffffffffffffffffffffffffffffffff1673ffffffffffffffffffffffffffffffffffffffff1673ffffffffffffffffffffffffffffffffffffffff16815260200190815260200160002060030160009054906101000a900460ff16151514611305576040517f08c379a000000000000000000000000000000000000000000000000000000000815260040180806020018281038252603281526020018061173f6032913960400191505060405180910390fd5b600060046000600160009054906101000a900473ffffffffffffffffffffffffffffffffffffffff1673ffffffffffffffffffffffffffffffffffffffff1673ffffffffffffffffffffffffffffffffffffffff16815260200190815260200160002060000160006101000a81548160ff0219169083151502179055506005600354016003819055507f41fb633014030d26cb15c83d6e3486a53064a32278af28cdbc77d58b1d08b4ed600060046000600160009054906101000a900473ffffffffffffffffffffffffffffffffffffffff1673ffffffffffffffffffffffffffffffffffffffff1673ffffffffffffffffffffffffffffffffffffffff16815260200190815260200160002060010160046000600160009054906101000a900473ffffffffffffffffffffffffffffffffffffffff1673ffffffffffffffffffffffffffffffffffffffff1673ffffffffffffffffffffffffffffffffffffffff1681526020019081526020016000206002016000600160009054906101000a900473ffffffffffffffffffffffffffffffffffffffff1660405180861515151581526020018060200180602001851515151581526020018473ffffffffffffffffffffffffffffffffffffffff1673ffffffffffffffffffffffffffffffffffffffff1681526020018381038352878181546001816001161561010002031660029004815260200191508054600181600116156101000203166002900480156115715780601f1061154657610100808354040283529160200191611571565b820191906000526020600020905b81548152906001019060200180831161155457829003601f168201915b50508381038252868181546001816001161561010002031660029004815260200191508054600181600116156101000203166002900480156115f45780601f106115c9576101008083540402835291602001916115f4565b820191906000526020600020905b8154815290600101906020018083116115d757829003601f168201915b505097505050505050505060405180910390a17f5af36e3ebab905654a9e7f273f09e6935ad8d606b9c5212b8e2f02113af307d36005600354604051808381526020018281526020019250505060405180910390a1565b828054600181600116156101000203166002900490600052602060002090601f016020900481019282601f1061168c57805160ff19168380011785556116ba565b828001600101855582156116ba579182015b828111156116b957825182559160200191906001019061169e565b5b5090506116c791906116cb565b5090565b6116ed91905b808211156116e95760008160009055506001016116d1565b5090565b9056fe44657061727475726520636974792773206e616d652069732072657175697265642143616e206e6f7420636865636b20696e2069662074686520626f6f6b696e67206973206e6f742076616c696443616e206e6f742063616e63656c20746865207469636b6574207768656e20796f75206861766520636865636b656420696ea265627a7a72315820ffa8d56b38b1a142bc52f49e1c7875aed28a389c3a6664af2c06a81f042d9ec464736f6c634300051000324368656e6368656e205a687520466c6967687420426f6f6b696e672053797374656d",
  "source": "pragma solidity >=0.4.21 <0.7.0;\r\n\r\ncontract Flightbooking {\r\n    string public systemName;\r\n    address payable passengerAddress;\r\n    //address[] public passengerBookingList;\r\n    uint ticketPrice = 5 ether;\r\n    uint balance;\r\n\r\n    struct FlightBooking {\r\n        bool isValidBooking;\r\n        string departureCity;\r\n        string arrivalCity;\r\n        bool hasCheckedIn;\r\n        address payable passenger;\r\n    }\r\n\r\n    mapping(address => FlightBooking) public bookings;\r\n\r\n    //events\r\n    event booking(\r\n        bool isValidBooking,\r\n        string departureCity,\r\n        string arrivalCity,\r\n        bool hasCheckedIn,\r\n        address payable passenger\r\n    );\r\n\r\n    event chenckIn(\r\n        bool isValidBooking,\r\n        string departureCity,\r\n        string arrivalCity,\r\n        bool hasCheckedIn,\r\n        address payable passenger\r\n    );\r\n\r\n    event cancelBooking(\r\n        bool isValidBooking,\r\n        string departureCity,\r\n        string arrivalCity,\r\n        bool hasCheckedIn,\r\n        address payable passenger\r\n    );\r\n\r\n    event refund(\r\n        uint transferEtherNum,\r\n        uint totalBalanceLeft\r\n    );\r\n\r\n    constructor() public {\r\n        systemName = \"Chenchen Zhu Flight Booking System\";\r\n        balance = 100 ether;\r\n    }\r\n\r\n    //functions\r\n    function sendEther(address payable _address, uint value) public payable {\r\n         _address.transfer(value);\r\n     }\r\n    //booking\r\n    function createBooking(string memory _departureCity, string memory _arrivalCity) public {\r\n        passengerAddress = msg.sender;\r\n        require(bytes(_departureCity).length > 0, \"Departure city's name is required!\");\r\n        require(bytes(_arrivalCity).length > 0, \"Arrival city's name is required!\");\r\n        require(bookings[passengerAddress].isValidBooking == false || bookings[passengerAddress].hasCheckedIn == true, \"The passenger can not book\");\r\n        //send enough ether to the small contract\r\n        require(balance >= ticketPrice, \"Not enough Ether\");\r\n        balance = balance-5;\r\n        sendEther(passengerAddress, ticketPrice);\r\n        bookings[passengerAddress] = FlightBooking(true, _departureCity, _arrivalCity, false, passengerAddress);\r\n        emit booking(true, _departureCity, _arrivalCity, false, passengerAddress);\r\n    }\r\n\r\n\r\n    //check in\r\n    function checkIn() public {\r\n        passengerAddress = msg.sender;\r\n        require(bookings[passengerAddress].isValidBooking == true, \"Can not check in if the booking is not valid\");\r\n        require(bookings[passengerAddress].hasCheckedIn == false, \"Can not check in twice\");\r\n        bookings[passengerAddress].hasCheckedIn = true;\r\n        emit chenckIn(true, bookings[passengerAddress].departureCity, bookings[passengerAddress].arrivalCity, true, passengerAddress);\r\n    }\r\n\r\n    function cancel() public {\r\n        passengerAddress = msg.sender;\r\n        require(bookings[passengerAddress].hasCheckedIn == false, \"Can not cancel the ticket when you have checked in\");\r\n        bookings[passengerAddress].isValidBooking = false;\r\n        //get the refund\r\n        balance = balance + 5;\r\n        emit cancelBooking(false, bookings[passengerAddress].departureCity, bookings[passengerAddress].arrivalCity, false, passengerAddress);\r\n        emit refund(5, balance);\r\n    }\r\n\r\n\r\n\r\n}",
  "sourcePath": "F:\\documents\\Desktop\\ubccourse\\EECE571g\\ReviewAndMidtermFrame\\EECE571G-Blockchain\\src\\contracts\\Flightbooking.sol",
  "compiler": {
    "name": "solc",
    "version": "0.5.16+commit.9c3226ce.Emscripten.clang"
  },
  "schemaVersion": "3.0.23",
  "updatedAt": "2020-02-25T04:28:50.972Z",
  "devdoc": {
    "methods": {}
  },
  "userdoc": {
    "methods": {}
  }
}