{
  "contractName": "Hospital",
  "abi": [
    {
      "inputs": [],
      "payable": false,
      "stateMutability": "nonpayable",
      "type": "constructor"
    },
    {
      "anonymous": false,
      "inputs": [
        {
          "indexed": false,
          "internalType": "uint256",
          "name": "doctorId",
          "type": "uint256"
        },
        {
          "indexed": false,
          "internalType": "uint256",
          "name": "roomId",
          "type": "uint256"
        },
        {
          "indexed": false,
          "internalType": "string",
          "name": "patientName",
          "type": "string"
        },
        {
          "indexed": false,
          "internalType": "address payable",
          "name": "itemOwner",
          "type": "address"
        },
        {
          "indexed": false,
          "internalType": "bool",
          "name": "isBooked",
          "type": "bool"
        }
      ],
      "name": "appointment",
      "type": "event"
    },
    {
      "anonymous": false,
      "inputs": [
        {
          "indexed": false,
          "internalType": "uint256",
          "name": "doctorId",
          "type": "uint256"
        },
        {
          "indexed": false,
          "internalType": "uint256",
          "name": "roomId",
          "type": "uint256"
        },
        {
          "indexed": false,
          "internalType": "string",
          "name": "patientName",
          "type": "string"
        },
        {
          "indexed": false,
          "internalType": "address payable",
          "name": "itemOwner",
          "type": "address"
        },
        {
          "indexed": false,
          "internalType": "bool",
          "name": "isBooked",
          "type": "bool"
        }
      ],
      "name": "cancel",
      "type": "event"
    },
    {
      "constant": true,
      "inputs": [
        {
          "internalType": "uint256",
          "name": "",
          "type": "uint256"
        }
      ],
      "name": "addressIndices",
      "outputs": [
        {
          "internalType": "address",
          "name": "",
          "type": "address"
        }
      ],
      "payable": false,
      "stateMutability": "view",
      "type": "function"
    },
    {
      "constant": true,
      "inputs": [
        {
          "internalType": "address",
          "name": "",
          "type": "address"
        }
      ],
      "name": "appointments",
      "outputs": [
        {
          "internalType": "uint256",
          "name": "doctorId",
          "type": "uint256"
        },
        {
          "internalType": "uint256",
          "name": "roomId",
          "type": "uint256"
        },
        {
          "internalType": "string",
          "name": "patientName",
          "type": "string"
        },
        {
          "internalType": "address payable",
          "name": "itemOwner",
          "type": "address"
        },
        {
          "internalType": "bool",
          "name": "isBooked",
          "type": "bool"
        }
      ],
      "payable": false,
      "stateMutability": "view",
      "type": "function"
    },
    {
      "constant": true,
      "inputs": [],
      "name": "hospitalName",
      "outputs": [
        {
          "internalType": "string",
          "name": "",
          "type": "string"
        }
      ],
      "payable": false,
      "stateMutability": "view",
      "type": "function"
    },
    {
      "constant": false,
      "inputs": [
        {
          "internalType": "string",
          "name": "_patienceName",
          "type": "string"
        },
        {
          "internalType": "uint256",
          "name": "_doctorId",
          "type": "uint256"
        },
        {
          "internalType": "uint256",
          "name": "_roomId",
          "type": "uint256"
        }
      ],
      "name": "createAppointment",
      "outputs": [],
      "payable": false,
      "stateMutability": "nonpayable",
      "type": "function"
    },
    {
      "constant": false,
      "inputs": [],
      "name": "cancelAppointment",
      "outputs": [],
      "payable": false,
      "stateMutability": "nonpayable",
      "type": "function"
    }
  ],
  "bytecode": "0x60806040523480156200001157600080fd5b506040518060600160405280602881526020016200141a6028913960009080519060200190620000439291906200004a565b50620000f9565b828054600181600116156101000203166002900490600052602060002090601f016020900481019282601f106200008d57805160ff1916838001178555620000be565b82800160010185558215620000be579182015b82811115620000bd578251825591602001919060010190620000a0565b5b509050620000cd9190620000d1565b5090565b620000f691905b80821115620000f2576000816000905550600101620000d8565b5090565b90565b61131180620001096000396000f3fe608060405234801561001057600080fd5b50600436106100575760003560e01c80631cae99e21461005c57806359c35bdf146100df5780637a7d8f63146101ae578063a7df8c57146102b7578063fea32dd214610325575b600080fd5b61006461032f565b6040518080602001828103825283818151815260200191508051906020019080838360005b838110156100a4578082015181840152602081019050610089565b50505050905090810190601f1680156100d15780820380516001836020036101000a031916815260200191505b509250505060405180910390f35b6101ac600480360360608110156100f557600080fd5b810190808035906020019064010000000081111561011257600080fd5b82018360208201111561012457600080fd5b8035906020019184600183028401116401000000008311171561014657600080fd5b91908080601f016020809104026020016040519081016040528093929190818152602001838380828437600081840152601f19601f82011690508083019250505050505050919291929080359060200190929190803590602001909291905050506103cd565b005b6101f0600480360360208110156101c457600080fd5b81019080803573ffffffffffffffffffffffffffffffffffffffff169060200190929190505050610b1c565b60405180868152602001858152602001806020018473ffffffffffffffffffffffffffffffffffffffff1673ffffffffffffffffffffffffffffffffffffffff16815260200183151515158152602001828103825285818151815260200191508051906020019080838360005b8381101561027857808201518184015260208101905061025d565b50505050905090810190601f1680156102a55780820380516001836020036101000a031916815260200191505b50965050505050505060405180910390f35b6102e3600480360360208110156102cd57600080fd5b8101908080359060200190929190505050610c17565b604051808273ffffffffffffffffffffffffffffffffffffffff1673ffffffffffffffffffffffffffffffffffffffff16815260200191505060405180910390f35b61032d610c53565b005b60008054600181600116156101000203166002900480601f0160208091040260200160405190810160405280929190818152602001828054600181600116156101000203166002900480156103c55780601f1061039a576101008083540402835291602001916103c5565b820191906000526020600020905b8154815290600101906020018083116103a857829003601f168201915b505050505081565b33600160006101000a81548173ffffffffffffffffffffffffffffffffffffffff021916908373ffffffffffffffffffffffffffffffffffffffff16021790555060008090505b60028054905081101561060c5782600360006002848154811061043357fe5b9060005260206000200160009054906101000a900473ffffffffffffffffffffffffffffffffffffffff1673ffffffffffffffffffffffffffffffffffffffff1673ffffffffffffffffffffffffffffffffffffffff168152602001908152602001600020600001541415610510576040517f08c379a000000000000000000000000000000000000000000000000000000000815260040180806020018281038252601c8152602001807f5468697320646f63746f7220686173206265656e20626f6f6b6564210000000081525060200191505060405180910390fd5b81600360006002848154811061052257fe5b9060005260206000200160009054906101000a900473ffffffffffffffffffffffffffffffffffffffff1673ffffffffffffffffffffffffffffffffffffffff1673ffffffffffffffffffffffffffffffffffffffff1681526020019081526020016000206001015414156105ff576040517f08c379a000000000000000000000000000000000000000000000000000000000815260040180806020018281038252601a8152602001807f5468697320726f6f6d20686173206265656e20626f6f6b65642100000000000081525060200191505060405180910390fd5b8080600101915050610414565b506000835111610684576040517f08c379a000000000000000000000000000000000000000000000000000000000815260040180806020018281038252601c8152602001807f50617469656e63652773206e616d65206973207265717569726564210000000081525060200191505060405180910390fd5b600082116106dd576040517f08c379a00000000000000000000000000000000000000000000000000000000081526004018080602001828103825260218152602001806112996021913960400191505060405180910390fd5b60008111610753576040517f08c379a000000000000000000000000000000000000000000000000000000000815260040180806020018281038252601f8152602001807f506c6561736520696e7075742074686520636f727265637420726f6f6d49640081525060200191505060405180910390fd5b6001151560036000600160009054906101000a900473ffffffffffffffffffffffffffffffffffffffff1673ffffffffffffffffffffffffffffffffffffffff1673ffffffffffffffffffffffffffffffffffffffff16815260200190815260200160002060030160149054906101000a900460ff1615151415610822576040517f08c379a00000000000000000000000000000000000000000000000000000000081526004018080602001828103825260238152602001806112ba6023913960400191505060405180910390fd5b6040518060a00160405280838152602001828152602001848152602001600160009054906101000a900473ffffffffffffffffffffffffffffffffffffffff1673ffffffffffffffffffffffffffffffffffffffff1681526020016001151581525060036000600160009054906101000a900473ffffffffffffffffffffffffffffffffffffffff1673ffffffffffffffffffffffffffffffffffffffff1673ffffffffffffffffffffffffffffffffffffffff1681526020019081526020016000206000820151816000015560208201518160010155604082015181600201908051906020019061091592919061113e565b5060608201518160030160006101000a81548173ffffffffffffffffffffffffffffffffffffffff021916908373ffffffffffffffffffffffffffffffffffffffff16021790555060808201518160030160146101000a81548160ff0219169083151502179055509050506002600160009054906101000a900473ffffffffffffffffffffffffffffffffffffffff1690806001815401808255809150509060018203906000526020600020016000909192909190916101000a81548173ffffffffffffffffffffffffffffffffffffffff021916908373ffffffffffffffffffffffffffffffffffffffff160217905550507f029a9e3357bad0f24869fb0a13a0cfc6a2a356c58933f4d0c6accee12bc2e9fd828285600160009054906101000a900473ffffffffffffffffffffffffffffffffffffffff16600160405180868152602001858152602001806020018473ffffffffffffffffffffffffffffffffffffffff1673ffffffffffffffffffffffffffffffffffffffff16815260200183151515158152602001828103825285818151815260200191508051906020019080838360005b83811015610ad9578082015181840152602081019050610abe565b50505050905090810190601f168015610b065780820380516001836020036101000a031916815260200191505b50965050505050505060405180910390a1505050565b6003602052806000526040600020600091509050806000015490806001015490806002018054600181600116156101000203166002900480601f016020809104026020016040519081016040528092919081815260200182805460018160011615610100020316600290048015610bd45780601f10610ba957610100808354040283529160200191610bd4565b820191906000526020600020905b815481529060010190602001808311610bb757829003601f168201915b5050505050908060030160009054906101000a900473ffffffffffffffffffffffffffffffffffffffff16908060030160149054906101000a900460ff16905085565b60028181548110610c2457fe5b906000526020600020016000915054906101000a900473ffffffffffffffffffffffffffffffffffffffff1681565b33600160006101000a81548173ffffffffffffffffffffffffffffffffffffffff021916908373ffffffffffffffffffffffffffffffffffffffff160217905550610c9c6111be565b60036000600160009054906101000a900473ffffffffffffffffffffffffffffffffffffffff1673ffffffffffffffffffffffffffffffffffffffff1673ffffffffffffffffffffffffffffffffffffffff1681526020019081526020016000206040518060a00160405290816000820154815260200160018201548152602001600282018054600181600116156101000203166002900480601f016020809104026020016040519081016040528092919081815260200182805460018160011615610100020316600290048015610db55780601f10610d8a57610100808354040283529160200191610db5565b820191906000526020600020905b815481529060010190602001808311610d9857829003601f168201915b505050505081526020016003820160009054906101000a900473ffffffffffffffffffffffffffffffffffffffff1673ffffffffffffffffffffffffffffffffffffffff1673ffffffffffffffffffffffffffffffffffffffff1681526020016003820160149054906101000a900460ff1615151515815250509050600115158160800151151514610e92576040517f08c379a00000000000000000000000000000000000000000000000000000000081526004018080602001828103825260268152602001806112736026913960400191505060405180910390fd5b7f437b8de33c7c5a0344aacdb7c42d85813cb3cd21d9edd23e84d555a2c0ddf3f08160000151826020015183604001518460600151600160405180868152602001858152602001806020018473ffffffffffffffffffffffffffffffffffffffff1673ffffffffffffffffffffffffffffffffffffffff16815260200183151515158152602001828103825285818151815260200191508051906020019080838360005b83811015610f51578082015181840152602081019050610f36565b50505050905090810190601f168015610f7e5780820380516001836020036101000a031916815260200191505b50965050505050505060405180910390a160008090505b60028054905081101561107b57600160009054906101000a900473ffffffffffffffffffffffffffffffffffffffff1673ffffffffffffffffffffffffffffffffffffffff1660028281548110610fe857fe5b9060005260206000200160009054906101000a900473ffffffffffffffffffffffffffffffffffffffff1673ffffffffffffffffffffffffffffffffffffffff16141561106e576002818154811061103c57fe5b9060005260206000200160006101000a81549073ffffffffffffffffffffffffffffffffffffffff021916905561107b565b8080600101915050610f95565b5060036000600160009054906101000a900473ffffffffffffffffffffffffffffffffffffffff1673ffffffffffffffffffffffffffffffffffffffff1673ffffffffffffffffffffffffffffffffffffffff16815260200190815260200160002060008082016000905560018201600090556002820160006110fe9190611205565b6003820160006101000a81549073ffffffffffffffffffffffffffffffffffffffff02191690556003820160146101000a81549060ff0219169055505050565b828054600181600116156101000203166002900490600052602060002090601f016020900481019282601f1061117f57805160ff19168380011785556111ad565b828001600101855582156111ad579182015b828111156111ac578251825591602001919060010190611191565b5b5090506111ba919061124d565b5090565b6040518060a00160405280600081526020016000815260200160608152602001600073ffffffffffffffffffffffffffffffffffffffff1681526020016000151581525090565b50805460018160011615610100020316600290046000825580601f1061122b575061124a565b601f016020900490600052602060002090810190611249919061124d565b5b50565b61126f91905b8082111561126b576000816000905550600101611253565b5090565b9056fe5468652070617469656e636520646f6573206e6f742068617665206170706f696e746d656e74506c6561736520696e7075742074686520636f727265637420646f63746f7249645468652070617469656e7420616c726561647920686173206170706f696e746d656e74a265627a7a72315820d195d8c04106ecaef313f00042f68b662fd42fd1f003d297072f86099f8d341464736f6c634300051000324368656e6368656e205a687520426f6f6b696e672053797374656d20666f7220686f73706974616c",
  "source": "pragma solidity >=0.4.21 <0.7.0;\r\n\r\ncontract Hospital {\r\n    string public hospitalName;\r\n    address payable patienceAddress;\r\n    address[] public addressIndices;\r\n\r\n    struct Appointment {\r\n        uint doctorId;\r\n        uint roomId;\r\n        string patientName;\r\n        address payable itemOwner;\r\n        bool isBooked;\r\n    }\r\n\r\n    mapping(address => Appointment) public appointments;\r\n\r\n       //events\r\n    event appointment(  //it's () and ,   !!!!\r\n        uint doctorId,\r\n        uint roomId,\r\n        string patientName,\r\n        address payable itemOwner,\r\n        bool isBooked\r\n    );\r\n\r\n    event cancel(\r\n        uint doctorId,\r\n        uint roomId,\r\n        string patientName,\r\n        address payable itemOwner,\r\n        bool isBooked\r\n    );\r\n\r\n    constructor() public {\r\n        hospitalName = \"Chenchen Zhu Booking System for hospital\";\r\n    }\r\n\r\n    //functions\r\n\r\n    //createItem\r\n    function createAppointment(string memory _patienceName, uint _doctorId, uint _roomId) public {\r\n        patienceAddress = msg.sender;\r\n        for(uint i = 0; i<addressIndices.length; i++){\r\n            require(appointments[addressIndices[i]].doctorId!=_doctorId, \"This doctor has been booked!\");\r\n            require(appointments[addressIndices[i]].roomId!=_roomId, \"This room has been booked!\");\r\n        }\r\n        require(bytes(_patienceName).length > 0, \"Patience's name is required!\");\r\n        require(_doctorId > 0, \"Please input the correct doctorId\");\r\n        require(_roomId > 0, \"Please input the correct roomId\");\r\n        require(appointments[patienceAddress].isBooked != true, \"The patient already has appointment\");\r\n        appointments[patienceAddress] = Appointment(_doctorId, _roomId, _patienceName, patienceAddress, true);\r\n        addressIndices.push(patienceAddress);\r\n        //addressIndices[addressIndices.length] = patienceAddress;\r\n        emit appointment(_doctorId, _roomId, _patienceName, patienceAddress, true);\r\n    }\r\n\r\n    //use memory when don't know abou the size of the argument\r\n    //can also use storage and it can save transation fee\r\n\r\n    //buyItem\r\n    function cancelAppointment() public {\r\n        patienceAddress = msg.sender;\r\n        Appointment memory item = appointments[patienceAddress];\r\n        require(item.isBooked==true, \"The patience does not have appointment\");\r\n        emit cancel(item.doctorId, item.roomId, item.patientName, item.itemOwner, true);\r\n        for(uint i = 0; i<addressIndices.length; i++){\r\n            if(addressIndices[i] == patienceAddress){\r\n                delete addressIndices[i];\r\n                break;\r\n            }\r\n        }\r\n        delete appointments[patienceAddress];\r\n    }\r\n}",
  "sourcePath": "F:\\documents\\Desktop\\ubccourse\\EECE571g\\ReviewAndMidtermFrame\\src\\contracts\\hospital.sol",
  "compiler": {
    "name": "solc",
    "version": "0.5.16+commit.9c3226ce.Emscripten.clang"
  },
  "schemaVersion": "3.0.23",
  "updatedAt": "2020-02-25T04:25:00.871Z",
  "devdoc": {
    "methods": {}
  },
  "userdoc": {
    "methods": {}
  }
}